{
  "address": "0x1f7d70f411C29D83Fd8F7816A0626fC72eA59DaB",
  "abi": [
    {
      "inputs": [],
      "name": "getValue",
      "outputs": [
        {
          "internalType": "uint256",
          "name": "",
          "type": "uint256"
        }
      ],
      "stateMutability": "view",
      "type": "function"
    },
    {
      "inputs": [
        {
          "internalType": "uint256",
          "name": "_value",
          "type": "uint256"
        }
      ],
      "name": "setValue",
      "outputs": [],
      "stateMutability": "nonpayable",
      "type": "function"
    },
    {
      "inputs": [],
      "name": "value",
      "outputs": [
        {
          "internalType": "uint256",
          "name": "",
          "type": "uint256"
        }
      ],
      "stateMutability": "view",
      "type": "function"
    }
  ],
  "transactionHash": "0xaf5a1e206fe08e116691294f5dc02f88cbdf30ee499e22c626ef0cf6ecc6ee8c",
  "args": [],
  "numDeployments": 1,
  "solcInputHash": "59c40686d5c2af4af7eea288c0eef8ec",
  "bytecode": "0x608080604052346100155760c5908161001b8239f35b600080fdfe6080806040526004361015601257600080fd5b600090813560e01c90816320965255146073575080633fa4f24514605857635524107714603e57600080fd5b346055576020366003190112605557600435815580f35b80fd5b50346055578060031936011260555760209054604051908152f35b905034608b5781600319360112608b57602091548152f35b5080fdfea26469706673582212202b51e42bbe97cea0135784acfb35a8ca8ab65d6263e50db7fdbef81d7117609864736f6c63430008180033",
  "devdoc": {
    "kind": "dev",
    "methods": {},
    "version": 1
  },
  "userdoc": {
    "kind": "user",
    "methods": {},
    "version": 1
  },
  "storageLayout": {
    "storage": [
      {
        "astId": 3,
        "contract": "contracts/Mock.sol:MockTest",
        "label": "value",
        "offset": 0,
        "slot": "0",
        "type": "t_uint256"
      }
    ],
    "types": {
      "t_uint256": {
        "encoding": "inplace",
        "label": "uint256",
        "numberOfBytes": "32"
      }
    }
  }
}