{
  "address": "0xBee90abE6e504E15226E0fD2Cc5Abef6c0f40c6F",
  "abi": [
    {
      "inputs": [
        {
          "internalType": "address",
          "name": "token",
          "type": "address"
        },
        {
          "internalType": "address",
          "name": "vault",
          "type": "address"
        },
        {
          "internalType": "uint256",
          "name": "amount",
          "type": "uint256"
        },
        {
          "internalType": "uint256",
          "name": "deadline",
          "type": "uint256"
        },
        {
          "internalType": "uint8",
          "name": "v",
          "type": "uint8"
        },
        {
          "internalType": "bytes32",
          "name": "r",
          "type": "bytes32"
        },
        {
          "internalType": "bytes32",
          "name": "s",
          "type": "bytes32"
        }
      ],
      "name": "depositWithPermit",
      "outputs": [],
      "stateMutability": "nonpayable",
      "type": "function"
    }
  ],
  "transactionHash": "0x8f30c5e9a59e068c264d3b289a4749cb4bd2adf26243021c4b854b73a4703239",
  "args": [],
  "numDeployments": 4,
  "solcInputHash": "9fa55ab3f2d5061bb1c79f29ba5345b2",
  "bytecode": "0x60808060405234610016576102c9908161001c8239f35b600080fdfe608060409080825260048036101561001657600080fd5b600092833560e01c638ef597391461002d57600080fd5b3461023a5760e036600319011261023a576001600160a01b03823581811694919390859003610236576024938435908116809103610232576044359260843560ff811680910361022e57873b1561022e5763d505accf60e01b8252338483015230878301528460448301526064356064830152608482015260a43560a482015260c43560c4820152878160e481838b5af18015610224576101f7575b5083516323b872dd60e01b81523383820152308682015260448101849052602096889291888160648187865af180156101ed5791899185936101d0575b50604488518094819363095ea7b360e01b8352878a8401528a8d8401525af180156101c657916044939189969593610199575b5086519788958694636e553f6560e01b865285015233908401525af19081156101905750610165578280f35b813d8311610189575b610178818361023e565b810103126101865738808280f35b80fd5b503d61016e565b513d85823e3d90fd5b6101b890873d89116101bf575b6101b0818361023e565b810190610276565b5038610139565b503d6101a6565b86513d85823e3d90fd5b6101e690833d85116101bf576101b0818361023e565b5038610106565b87513d86823e3d90fd5b67ffffffffffffffff819892981161021257845295386100c9565b5060418592634e487b7160e01b835252fd5b85513d8a823e3d90fd5b8880fd5b8680fd5b8580fd5b8380fd5b90601f8019910116810190811067ffffffffffffffff82111761026057604052565b634e487b7160e01b600052604160045260246000fd5b9081602091031261028e5751801515810361028e5790565b600080fdfea264697066735822122005c288f70a7692fd3e3426cf3dac67f5416f5dd75ec6502bb2ea3ca24a34bc0c64736f6c63430008180033",
  "devdoc": {
    "kind": "dev",
    "methods": {},
    "version": 1
  },
  "userdoc": {
    "kind": "user",
    "methods": {
      "depositWithPermit(address,address,uint256,uint256,uint8,bytes32,bytes32)": {
        "notice": "Deposit vào Vault mà không cần approve trước, dùng EIP-2612 permit"
      }
    },
    "version": 1
  },
  "storageLayout": {
    "storage": [],
    "types": null
  }
}