{
  "address": "0x82ef9da55A3806D44E48706214e020B37c1bAcBc",
  "abi": [
    {
      "inputs": [
        {
          "internalType": "address",
          "name": "token",
          "type": "address"
        },
        {
          "internalType": "address",
          "name": "vault",
          "type": "address"
        },
        {
          "internalType": "uint256",
          "name": "amount",
          "type": "uint256"
        },
        {
          "internalType": "address",
          "name": "receiver",
          "type": "address"
        }
      ],
      "name": "depositERC20",
      "outputs": [],
      "stateMutability": "nonpayable",
      "type": "function"
    }
  ],
  "transactionHash": "0xb30c34e7c896c78781635610ed8b8e6b2dbdfd8635c4ea5d8d70fb34e4e61453",
  "args": [],
  "numDeployments": 1,
  "solcInputHash": "da2ed02fb8996cca6ba41e8efc099866",
  "bytecode": "0x60808060405234610016576102b1908161001c8239f35b600080fdfe608060409080825260048036101561001657600080fd5b600092833560e01c63aac3c17d1461002d57600080fd5b346102225760803660031901126102225781356001600160a01b038181169182900361021e57602493843582811680910361021a57604492833594606435918216809203610216576323b872dd60e01b895233848a015230888a015284890186905260209889816064818e865af190811561020c578b916101ef575b50156101b6578886868a8d8b51958694859363095ea7b360e01b85528a8c8601528401525af19081156101ac578a9161017f575b5015610147578794939291899187519889968795636e553f6560e01b87528601528401525af190811561013e5750610113578280f35b813d8311610137575b6101268183610226565b810103126101345738808280f35b80fd5b503d61011c565b513d85823e3d90fd5b855162461bcd60e51b815280840189905260148189015273105c1c1c9bdd99481d1bdad95b8819985a5b195960621b81860152606490fd5b61019f9150893d8b116101a5575b6101978183610226565b81019061025e565b386100dd565b503d61018d565b87513d8c823e3d90fd5b865162461bcd60e51b81528085018a90526015818a015274151c985b9cd9995c881d1bdad95b8819985a5b1959605a1b81870152606490fd5b61020691508a3d8c116101a5576101978183610226565b386100a9565b88513d8d823e3d90fd5b8980fd5b8780fd5b8580fd5b8380fd5b90601f8019910116810190811067ffffffffffffffff82111761024857604052565b634e487b7160e01b600052604160045260246000fd5b90816020910312610276575180151581036102765790565b600080fdfea2646970667358221220a9c9abe830a1642e1818702bcded9f697c0fb3d2751919d97642fe0d443eb0cd64736f6c63430008180033",
  "devdoc": {
    "kind": "dev",
    "methods": {},
    "version": 1
  },
  "userdoc": {
    "kind": "user",
    "methods": {},
    "version": 1
  },
  "storageLayout": {
    "storage": [],
    "types": null
  }
}