{
  "address": "0x0eeC4608D4b713202b28009B4B0cA3A0e376B16C",
  "abi": [
    {
      "inputs": [
        {
          "components": [
            {
              "internalType": "address",
              "name": "to",
              "type": "address"
            },
            {
              "internalType": "uint256",
              "name": "value",
              "type": "uint256"
            },
            {
              "internalType": "bytes",
              "name": "data",
              "type": "bytes"
            }
          ],
          "internalType": "struct MockTest.Call[]",
          "name": "calls",
          "type": "tuple[]"
        }
      ],
      "name": "excuteCall",
      "outputs": [],
      "stateMutability": "nonpayable",
      "type": "function"
    },
    {
      "inputs": [],
      "name": "getValue",
      "outputs": [
        {
          "internalType": "uint256",
          "name": "",
          "type": "uint256"
        }
      ],
      "stateMutability": "view",
      "type": "function"
    },
    {
      "inputs": [
        {
          "internalType": "uint256",
          "name": "_value",
          "type": "uint256"
        }
      ],
      "name": "increaseValue",
      "outputs": [
        {
          "internalType": "uint256",
          "name": "",
          "type": "uint256"
        }
      ],
      "stateMutability": "nonpayable",
      "type": "function"
    },
    {
      "inputs": [
        {
          "internalType": "uint256",
          "name": "_value",
          "type": "uint256"
        }
      ],
      "name": "setValue",
      "outputs": [],
      "stateMutability": "nonpayable",
      "type": "function"
    },
    {
      "inputs": [],
      "name": "value",
      "outputs": [
        {
          "internalType": "uint256",
          "name": "",
          "type": "uint256"
        }
      ],
      "stateMutability": "view",
      "type": "function"
    }
  ],
  "transactionHash": "0xfe8ef5060b83ceb1166816a6360fa59d80e7ce9627ea9cd5c4c1d741349a8187",
  "args": [],
  "numDeployments": 5,
  "solcInputHash": "69b3f26c5d220b3b8433be287ea0ddc3",
  "bytecode": "0x60808060405234610016576102d7908161001c8239f35b600080fdfe6080604081815260048036101561001557600080fd5b600092833560e01c908163160ef807146102255750806320965255146102085780633fa4f2451461020857806355241077146101ef5763d664fd291461005a57600080fd5b346101eb5760209060206003193601126101e75780359167ffffffffffffffff908184116101e357366023850112156101e35783830135918083116101df576024926024860195602436918360051b0101116101db57875b8181106100bd578880f35b886100c982848a610264565b356001600160a01b03811681036101d757856100e684868c610264565b0135906100f484868c610264565b8b81013590601e19813603018212156101d357018035908782116101d35788019281360384136101d3578493828e519384928337810185815203925af13d156101ce573d8481116101bc57895190601f8101601f19908116603f01168201868111838210176101aa578b5281528a863d92013e5b15610175576001016100b2565b875162461bcd60e51b81528087018590526010818701526f135d5b1d1a58d85b1b0819985a5b195960821b6044820152606490fd5b634e487b7160e01b8d5260418a52888dfd5b634e487b7160e01b8b5260418852868bfd5b610168565b8480fd5b5080fd5b8780fd5b8680fd5b8580fd5b8380fd5b8280fd5b8382346101d75760203660031901126101d75735815580f35b5050346101d757816003193601126101d757602091549051908152f35b925050346101eb5760203660031901126101eb5782549080358201809211610251575080602093558152f35b634e487b7160e01b845260119052602483fd5b919081101561028b5760051b81013590605e1981360301821215610286570190565b600080fd5b634e487b7160e01b600052603260045260246000fdfea2646970667358221220654c88021bd73583ec18550498b5a283df10b91259c1fbd1865e3c774cc06d8f64736f6c63430008180033",
  "devdoc": {
    "kind": "dev",
    "methods": {},
    "version": 1
  },
  "userdoc": {
    "kind": "user",
    "methods": {},
    "version": 1
  },
  "storageLayout": {
    "storage": [
      {
        "astId": 3,
        "contract": "contracts/Mock.sol:MockTest",
        "label": "value",
        "offset": 0,
        "slot": "0",
        "type": "t_uint256"
      }
    ],
    "types": {
      "t_uint256": {
        "encoding": "inplace",
        "label": "uint256",
        "numberOfBytes": "32"
      }
    }
  }
}